:020000020000FC
:0200000033C00B
:020028006DC0A9
:0200340060C0AA
:0200480095C061
:1000680008E00EBF0FEF0DBF259A87D077D56DD06A
:1000780020D0F5D6A1D5FECF2D9A08952D980895B4
:10008800FFCF9F9392E304D09A95E9F79F91089543
:100098006F938F9368EC8AEA8A95F1F76A95D9F796
:1000A8008F916F9108956F9362E36A95F1F76F915D
:1000B8000895229A01EC009385000FE700938400CD
:1000C8000FEF009389000FEF0093880001EC009375
:1000D8008B0002E800938A0003E2009380000BE1A2
:1000E8000093810001E200936F007894089501EC79
:1000F800009385000FE700938400189500E00093B3
:100108006F0010918600209187001258214C889426
:100118000FE0101B01E0200B0CF005C001E000937C
:100128002A00AADF05C002E000932A00A7DF00C06A
:10013800189500E000932A00DADF01E200936F00CF
:1001480000912A000030E1F3089500E00093C50013
:100158000FEC0093C40002E00093C00000E9009394
:10016800C10006E00093C20078940895F8940091C5
:10017800C600005300931E0018951ED024D02AD024
:1001880030D036D03CD042D048D04ED054D05AD0BF
:1001980060D066D06CD072D078D07ED084D08AD02F
:1001A80090D096D00895042F069503958D919D9132
:1001B8000A9509F0FBCF0895E0E0FAE0A0E0B5E089
:1001C80008E08DD00895E8E0FAE0A8E0B5E008E09E
:1001D80086D00895E0E1FAE0A6E1B5E008E07FD036
:1001E8000895E8E1FAE0A4E2B5E008E078D00895DF
:1001F800E0E2FAE0A2E3B5E008E071D00895E8E2B1
:10020800FAE0A0E4B5E008E06AD00895E0E3FAE097
:10021800A8E4B5E008E063D00895E8E3FAE0A6E5CD
:10022800B5E008E05CD00895E0E4FAE0A4E6B5E0C3
:1002380008E055D00895E8E4FAE0A2E7B5E008E060
:100248004ED00895E0E5FAE0A0E8B5E008E047D030
:100258000895E8E5FAE0A8E8B5E008E040D0089598
:10026800E0E6FAE0A6E9B5E008E039D00895E8E666
:10027800FAE0A4E0B6E008E032D00895E0E7FAE05A
:10028800A2E1B6E008E02BD00895E8E7FAE0A0E2A2
:10029800B6E008E024D00895E0E8FAE0A8E2B6E085
:1002A80008E01DD00895E8E8FAE0A6E3B6E008E023
:1002B80016D00895E0E9FAE0A4E4B6E008E00FD02B
:1002C8000895E8E9FAE0A2E5B6E008E008D0089564
:1002D800E0EAFAE0A0E6B6E008E001D0089505916A
:1002E8000D930A95E1F7089582E796E022D475E028
:1002F80084E893E09AD4089571E088E097E019D4EF
:1003080094D471E086ED96E014D48FD471E087E23E
:1003180096E00FD48AD471E088E795E00AD485D4B2
:1003280071E082EE94E005D480D471E086E794E031
:1003380000D47BD471E08AE094E0FBD376D471E0FA
:100348008DE993E0F6D371D471E080E393E0F1D3C3
:100358006CD471E084EC92E0ECD367D471E088E56A
:0803680092E0E7D362D408958E
:100A0000D606200308078101D6062003A406C201EA
:100A1000D606200340063F02D60620030E06BC027F
:100A200027069D031405390378054C04B0049D0383
:100A30001405B0044C041A0474045005E803B0040F
:100A40000604D20552032D059D034006EE02AA05B9
:100A50003003D606EE02AA05C4024E07EE02AA052E
:100A60005802D007EE02AA05F401F401BC02F40119
:100A7000EE02EE028403200352035203E8038403D0
:100A8000B603B6034C04E803B004B004DC057805F3
:100A9000AA05AA05DC057805A406A406DC057805E8
:100AA000D007D007DC0578050FEF07B908B908E4CF
:100AB0000093B80000E00093B900089504EA0093A1
:100AC000BC000091BC0007FFFCCF0091B900087F7B
:100AD000083009F00C944400089504E00093BC0031
:100AE0005093BB0004E80093BC000091BC0007FFDA
:100AF000FCCF08950091BC0007FFFCCF5091BB00D4
:100B0000089504E90093BC000091BC000071E1F776
:100B100008955F93C9DFD2DF50E8DFDF50E0DDDF0B
:100B200050E2DBDFEEDFCADF50E8D7DF5EEFD5DF74
:100B300055E6D3DFE6DF5F9108955F93770F770F78
:100B400056E0750FBBDF50E8C8DF572FC6DF50E017
:100B5000C4DF50E0C2DF582FC0DF592FBEDFD1DF26
:100B60005F910895D6DF01D0089532E041E0A2E719
:100B7000B5E072D034E043E0A2E7B5E06DD036E0F6
:100B800045E0A4E2B5E068D038E047E0A4E2B5E093
:100B900063D04FD032E041E0A2E1B6E059D034E07A
:100BA00043E0A2E1B6E054D036E045E0A2E1B6E091
:100BB0004FD038E047E0A2E1B6E04AD02BD008950C
:100BC00000911E00003089F00130B9F0023029F0A8
:100BD0000330D9F00630D9F0089521D0AEDA009173
:100BE0002A000230B1F495D008951ED0A6DA009103
:100BF0002A00023071F4E2D008950CD09EDA009100
:100C00002A00023031F42CD00895AFDF08952BD1A3
:100C10000895ABCF70E088EE93E08FDF089570E029
:100C200084EF91E08ADF089570E08CED95E085DF38
:100C300008956F938F939F9364E68AE590E0019601
:100C4000F1F700006A95C9F79F918F916F91089510
:100C5000AEDA732F72DF0895AADA742F6EDF08956B
:100C60002DD001D0089532E041E0A2E1B6E0F0DFFE
:100C700038E047E0A2E1B6E0EBDF34E043E0A8E291
:100C8000B6E0E6DF36E045E0A8E2B6E0E1DFFDD918
:100C900032E041E0A8E4B5E0DFDF38E047E0A6E17C
:100CA000B5E0DADF34E043E0A2E7B5E0D5DF36E0D7
:100CB00045E0A8E4B5E0D0DFE8D9089534E043E0AA
:100CC000A2E1B6E0C5DF36E045E0A2E1B6E0C0DF74
:100CD00032E041E0A8E2B6E0BBDF38E047E0A8E25E
:100CE000B6E0B6DFD2D934E043E0A8E4B5E0B4DF43
:100CF00036E045E0A4E2B5E0AFDF32E041E0A0E855
:100D0000B5E0AADF38E047E0A8E4B5E0A5DFBDD94B
:100D1000089534E043E0A2E1B6E09ADFA8E4B5E04C
:100D20009BDF32E041E0A4E0B6E092DFA2E7B5E06D
:100D300093DF38E047E0A2E1B6E08ADFA4E2B5E065
:100D40008BDF36E045E0A2E1B6E082DFA8E4B5E063
:100D500083DF9BD934E043E0A4E0B6E079DFA2E78B
:100D6000B5E07ADF32E041E0A2E1B6E071DFA6E96A
:100D7000B5E072DF38E047E0A2E1B6E069DFA0E06D
:100D8000B5E06ADF36E045E0A4E0B6E061DFA4E26A
:100D9000B5E062DF7AD934E043E0A2E1B6E058DFA3
:100DA000A2E7B5E059DF36E045E0A2E1B6E050DF6A
:100DB000A4E2B5E051DF69D9D8DE089532E041E020
:100DC000A2E1B6E045DFA8E4B5E046DF34E043E069
:100DD000A4E0B6E03DDFA2E7B5E03EDF36E045E067
:100DE000A4E0B6E035DFA4E2B5E036DF38E047E066
:100DF000A2E1B6E02DDFA8E4B5E02EDF46D932E06F
:100E000041E0A4E0B6E024DFA2E7B5E025DF34E06E
:100E100043E0A2E1B6E01CDFA6E9B5E01DDF36E065
:100E200045E0A2E1B6E014DFA0E0B5E015DF38E070
:100E300047E0A2E1B6E00CDFA4E2B5E00DDF25D982
:100E400032E041E0A2E1B6E003DFA2E7B5E004DF73
:100E500038E047E0A2E1B6E0FBDEA4E2B5E0FCDE6C
:100E600014D983DE089532E041E0A2E1B6E0F0DE7D
:100E7000A0E8B5E0F1DE34E043E0A2E1B6E0E8DE70
:100E8000A0E8B5E0E9DE36E045E0A2E1B6E0E0DE6C
:100E9000A2E3B5E0E1DE38E047E0A2E1B6E0D8DE6B
:100EA000A2E3B5E0D9DEC5DE32E041E0A0E6B6E07F
:100EB000CFDEBFDE03E00F93A6E9B5E0CDDEE5D8D7
:100EC000A8E4B5E0C9DEE1D80F910A95A1F74DDE9F
:100ED0000895AF93BF93A8E2B6E069D9732F2DDED2
:100EE000A8DEBF91AF9163D9742F27DEA2DEA2E105
:100EF000B6E05DD9732F21DE9CDE0895A4E0B6E054
:100F0000A7DE97DEA2E1B6E0A3DE93DEA0E2B6E0C4
:100F10009FDE8FDEA8E2B6E09BDE8BDEA6E3B6E0C6
:100F200097DE87DEA4E4B6E093DE83DEA2E5B6E0DA
:100F30008FDE7FDEA0E6B6E08BDE7BDE0895A0E0EC
:100F4000B5E08ADE76DEA8E0B5E086DE72DEA6E1F8
:100F5000B5E082DE6EDEA4E2B5E07EDE6ADEA2E30C
:100F6000B5E07ADE66DEA0E4B5E076DE62DEA8E417
:100F7000B5E072DE5EDEA6E5B5E06EDE5ADEA4E622
:100F8000B5E06ADE56DEA2E7B5E066DE52DEA0E836
:100F9000B5E062DE4EDEA8E8B5E05EDE4ADEA6E938
:080FA000B5E05ADE46DE0895BB
:00000001FF
